:100000000C9434000C9451000C9451000C94510049
:100010000C9451000C9451000C9451000C9451001C
:100020000C9451000C9451000C9451000C9451000C
:100030000C9451000C9451000C9451000C945100FC
:100040000C9451000C9451000C94E4000C94510059
:100050000C9451000C9451000C9451000C945100DC
:100060000C9451000C94510011241FBECFEFD8E026
:10007000DEBFCDBF11E0A0E0B1E0E6E2F2E002C0F9
:1000800005900D92AA31B107D9F721E0AAE1B1E0BC
:1000900001C01D92AB31B207E1F70E94CC000C9475
:1000A00011010C940000F8948FEF84B915B88AB14F
:1000B0008E7F8AB98AB182608AB91092C000E1EC61
:1000C000F0E01082808188698083E2ECF0E01082A9
:1000D00080818660808387E690E09093C50080935E
:1000E000C4000895AC0120E007C09091C00095FFC6
:1000F000FCCF3093C6002F5FFA01E20FF11D308173
:100100003111F3CF08959091C00095FFFCCF8093FB
:10011000C60008958233B1F028F4803349F081336A
:1001200061F024C08433C1F090F08533D1F01EC05B
:1001300015B885B1816085B9089515B885B182601B
:1001400085B9089515B885B1846085B9089515B845
:1001500085B1886085B9089515B885B1806185B984
:10016000089515B885B1806285B908958FEF85B976
:100170002FEF81EE94E0215080409040E1F700C0E5
:10018000000015B82FEF81EE94E0215080409040A0
:10019000E1F700C0000008950E945300789480E0C9
:1001A00091E00E9472008AE00E9483008DE00E942C
:1001B000830080911A018823E1F380911A010E9443
:1001C0008A0010921A01F5CF1F920F920FB60F926C
:1001D00011242F933F934F935F936F937F938F934C
:1001E0009F93AF93BF93EF93FF93E6ECF0E0808192
:1001F00080931A0180911A01808380810E948A0075
:10020000FF91EF91BF91AF919F918F917F916F91EE
:100210005F914F913F912F910F900FBE0F901F90C4
:060220001895F894FFCFD1
:10022600486F6C61206D756E646F20414848484880
:0A0236004848484848203D292000B0
:00000001FF
